{
  "contractName": "ProvaExistencia",
  "abi": [
    {
      "constant": false,
      "inputs": [
        {
          "internalType": "bytes32",
          "name": "prova",
          "type": "bytes32"
        }
      ],
      "name": "armazenar",
      "outputs": [],
      "payable": false,
      "stateMutability": "nonpayable",
      "type": "function"
    },
    {
      "constant": true,
      "inputs": [
        {
          "internalType": "bytes32",
          "name": "prova",
          "type": "bytes32"
        }
      ],
      "name": "checar",
      "outputs": [
        {
          "internalType": "bool",
          "name": "",
          "type": "bool"
        }
      ],
      "payable": false,
      "stateMutability": "view",
      "type": "function"
    },
    {
      "constant": true,
      "inputs": [
        {
          "internalType": "string",
          "name": "documento",
          "type": "string"
        }
      ],
      "name": "calcularProva",
      "outputs": [
        {
          "internalType": "bytes32",
          "name": "",
          "type": "bytes32"
        }
      ],
      "payable": false,
      "stateMutability": "pure",
      "type": "function"
    }
  ],
  "bytecode": "0x608060405234801561001057600080fd5b506102ea806100206000396000f3fe608060405234801561001057600080fd5b50600436106100415760003560e01c80635e7abf321461004657806361be06d414610115578063da6dcb4714610143575b600080fd5b6100ff6004803603602081101561005c57600080fd5b810190808035906020019064010000000081111561007957600080fd5b82018360208201111561008b57600080fd5b803590602001918460018302840111640100000000831117156100ad57600080fd5b91908080601f016020809104026020016040519081016040528093929190818152602001838380828437600081840152601f19601f820116905080830192505050505050509192919290505050610189565b6040518082815260200191505060405180910390f35b6101416004803603602081101561012b57600080fd5b8101908080359060200190929190505050610230565b005b61016f6004803603602081101561015957600080fd5b810190808035906020019092919050505061025f565b604051808215151515815260200191505060405180910390f35b60006002826040518082805190602001908083835b602083106101c1578051825260208201915060208101905060208303925061019e565b6001836020036101000a038019825116818451168082178552505050505050905001915050602060405180830381855afa158015610203573d6000803e3d6000fd5b5050506040513d602081101561021857600080fd5b81019080805190602001909291905050509050919050565b600081908060018154018082558091505090600182039060005260206000200160009091929091909150555050565b600080600090505b6000805490508110156102aa57826000828154811061028257fe5b9060005260206000200154141561029d5760019150506102b0565b8080600101915050610267565b50600090505b91905056fea265627a7a7231582022ea3c14d33129e3dfe76713c62fe033a70fac025e6b817849f99aa44397d50f64736f6c63430005100032",
  "source": "pragma solidity >=0.4.25 <0.7.0;\r\n\r\ncontract ProvaExistencia {\r\n  bytes32[] private provas;\r\n\r\n  function armazenar(bytes32 prova) public{\r\n    provas.push(prova);\r\n  }\r\n\r\n  function checar(bytes32 prova) public view returns (bool) {\r\n    for (uint256 idx = 0; idx < provas.length; idx++){\r\n      if(provas[idx] == prova){\r\n        return true;\r\n      }\r\n    }\r\n    return false;\r\n  }\r\n\r\n  function calcularProva(string memory documento) public pure returns (bytes32){\r\n    return sha256(bytes(documento));\r\n  }\r\n}",
  "sourcePath": "C:\\Users\\viniblack\\Desktop\\arquivos\\www\\estudos\\dapps\\dio-dapps\\contracts\\ProvaExistencia.sol",
  "compiler": {
    "name": "solc",
    "version": "0.5.16+commit.9c3226ce.Emscripten.clang"
  },
  "schemaVersion": "3.4.4",
  "updatedAt": "2021-12-22T00:21:43.408Z",
  "networkType": "ethereum",
  "devdoc": {
    "methods": {}
  },
  "userdoc": {
    "methods": {}
  }
}